:020000040800F2
:10000000E80400209D0100088D130008411100083C
:1000100025130008A9020008A51800080000000028
:100020000000000000000000000000009113000824
:10003000AB020008000000008F1300081514000830
:10004000B7010008B7010008B7010008B7010008B0
:10005000B7010008B7010008B7010008B7010008A0
:10006000B7010008B7010008B7010008B701000890
:10007000B7010008B7010008B7010008B701000880
:10008000B7010008B7010008B7010008B701000870
:10009000B7010008B7010008B7010008B701000860
:1000A000B7010008B7010008B7010008B701000850
:1000B000B7010008B7010008B7010008B701000840
:1000C000B7010008B7010008B7010008B701000830
:1000D000B7010008B7010008B7010008B701000820
:1000E000B7010008B7010008B7010008B701000810
:1000F000B7010008B7010008B7010008B701000800
:10010000B7010008B7010008B7010008B7010008EF
:10011000B7010008B7010008B7010008B7010008DF
:10012000B7010008B7010008B7010008B7010008CF
:10013000B7010008B7010008B7010008B7010008BF
:10014000B7010008B7010008B7010008B7010008AF
:10015000B7010008B7010008B7010008B70100089F
:10016000B7010008B7010008B7010008B70100088F
:10017000B7010008B7010008B7010008000000003F
:10018000B7010008B7010008DFF80CD000F07AF8DA
:1001900000480047F7180008E80400200648804798
:1001A00006480047FEE7FEE7FEE7FEE7FEE7FEE75C
:1001B000FEE7FEE7FEE7FEE7AD1400088901000850
:1001C0002DE9F05F0546002092469B46884606468C
:1001D000814640241BE0284641464746224600F01F
:1001E00041F853465A46C01A914110D31146184659
:1001F000224600F028F82D1A67EB01084F462246E8
:100200000120002100F01FF817EB00094E41201ECD
:10021000A4F10104DFDC484631462A464346BDE8E6
:10022000F09FD2B201E000F8012B491EFBD27047CB
:100230000022F6E710B513460A4604461946FFF7B2
:10024000F0FF204610BD202A04DB203A00FA02F11C
:10025000002070479140C2F1200320FA03F31943B4
:1002600090407047202A04DB203A21FA02F0002156
:10027000704721FA02F3D040C2F1200291400843B6
:1002800019467047064C074D06E0E06840F0010350
:1002900094E8070098471034AC42F6D3FFF778FF94
:1002A0002C1900084C190008FEE7704772B6FEE7EB
:1002B0002DE9F84FDFF8BCA10022012503264FF0FD
:1002C0000F090AF1040BAAF1040E00BF0B6805FA2E
:1002D00002F42340A34270D10F7907F00307012FE6
:1002E00001D0022F16D187684FEA420806FA08FCAF
:1002F00027EA0C07D1F80CC00CFA08FC4CEA070CF2
:10030000C0F808C04768A7430C79C4F300149440B0
:100310003C4344600C79E443A4070AD0C4684FEA24
:10032000420C06FA0CF7BC438F6807FA0CF7274318
:10033000C7600C7904F00304022C12D1D40800EB3E
:10034000840CDCF820405707FF0E09FA07F824EA6E
:100350000804D1F8108008FA07F848EA0408CCF835
:10036000208004684FEA420C06FA0CF7BC430F7970
:1003700007F0030707FA0CF7274307604C6814F4EB
:10038000403F70D03C4C276847F480472760246882
:1003900022F0030704F480440094384C07EB040C6B
:1003A000DCF8084897074FEA177809FA08F7BC43C2
:1003B000334FB84202D1002724E054E0314FB84215
:1003C00001D101271EE0304FB84201D1022719E0C8
:1003D0002E4FB84201D1032714E02D4FB84201D16E
:1003E00004270FE02B4FB84201D105270AE02A4F1E
:1003F000B84201D1062705E0284FB84201D10727AE
:1004000000E0082707FA08F72743CCF80878DAF85D
:1004100000405746D1F804C09C435FEACC2C00D57D
:100420001C433C60DBF800405F46D1F804C09C43AD
:100430005FEA8C2C00D51C433C60DEF80040774618
:10044000D1F804C09C435FEA8C3C00D51C433C605F
:10045000084F083F3C68D1F804C09C435FEACC3C9D
:1004600000D51C433C60521C102AFFF42FAFBDE89E
:10047000F88F0000083C0140443802400030014041
:10048000000002400004024000080240000C02404C
:10049000001002400014024000180240001C0240FC
:1004A0000AB1816170470904FBE7000001488068D8
:1004B0007047000000000020024881680278114463
:1004C00081607047000000200B4810B5016841F4BE
:1004D00000710160016841F480610160016841F4CC
:1004E00080710160032000F061F80F2000F006F831
:1004F00000F024F8002010BD003C024070B50D4D06
:1005000004464FF47A712878B1FBF0F00A49096883
:10051000B1FBF0F000F0FEFA48B9102C07D200222F
:100520002146501E00F022F800206C6070BD0120B2
:1005300070BD0000000000200C0000200A4808B533
:10054000016841F480410160006800F4804000903F
:100550000548001F016841F080510160006800F00B
:100560008050009008BD000044380240F0B40E4BAB
:100570001B680C46C3F30223C3F10705042D00D901
:100580000425191D072901D2002300E0DB1E0126E6
:1005900006FA05F1491E214099409E40761E1640FC
:1005A0003143F0BC01F07FB90CED00E0064900F0EA
:1005B000070208684FF6FF03184040EA0220034A8A
:1005C00010430860704700000CED00E00000FA05E1
:1005D0002DE9F0470E46050065D0DFF81481D8F804
:1005E0000000F7B200F00700B04207D288F80070B0
:1005F000D8F8000000F00700B04254D128683D4C04
:10060000810712D5400703D5206840F4E0502060F0
:100610002878000703D5206840F4604020602068F7
:10062000A96820F0F000084320602878C0072DD08A
:10063000304968680839012812D0022813D00328ED
:1006400011D00968890700292DDA216821F00301FA
:1006500001432160FFF72AFF814641F2883A0EE00C
:1006600009688903EFE709688901ECE7FFF71EFFD6
:10067000A0EB0901514502D90320BDE8F0872068AD
:10068000696800F00C00B0EB810FEFD1D8F80010D2
:10069000404601F00701B14207D90770006800F039
:1006A0000700B04201D00120E7E72878400705D5D0
:1006B0002068E96820F4E0500843206028780007AB
:1006C00006D52068296920F4604040EAC100206016
:1006D00000F038F82168084AC1F30311515CC840A2
:1006E0000649086006480068FFF708FF0020C4E7D5
:1006F000003C024008380240141900080C00002099
:10070000040000200448054900680968044AC1F350
:100710008221515CC84070470C000020083802401C
:10072000241900080448054900680968044AC1F30F
:100730004231515CC84070470C000020083802402C
:1007400024190008154810B5006810F00C02144870
:1007500013D01449042A0FD0082A0ED10F4C241F9D
:100760002268236802F03F025B0207D52068C0F3CD
:100770008810A0FB010106E0084610BD2168C1F306
:100780008811A1FB00010023FFF71AFD2168C1F3C6
:100790000141491C4900B0FBF1F010BD083802408E
:1007A0000024F40040787D012DE9F84F04006ED05C
:1007B0002078DFF84C93C007A9F104054AD009F16D
:1007C00004000168C1F38101012908D00068C0F369
:1007D000810002280AD1D9F80000400206D5286815
:1007E000800337D560680028E1D033E06068B0F559
:1007F000803F10D0B0F5A02F286810D020F48030B2
:100800002860286820F4802028606068A8B1FFF77D
:100810004DFE06460DE0286840F48030F4E740F4D1
:1008200080202860F7E700BFFFF740FE801B6428A8
:1008300073D828688003F7D50CE0FFF737FE06462B
:1008400005E000BFFFF732FE801B6428F0D828685F
:100850008003F7D42078DFF8AC8280074FF0000ADD
:100860003ED5A748001D016811F00C0F08D00068A4
:10087000C0F3810002280BD1D9F80000400207D450
:100880002868800716D5E068012800D112E033E11E
:10089000E068B8B10120C8F80000FFF707FE06467F
:1008A00005E000BFFFF702FE801B0228C0D82868C1
:1008B0008007F7D52868216920F0F80040EAC100D8
:1008C00028600DE0C8F800A0FFF7F0FD064604E040
:1008D000FFF7ECFD801B02281FD828688007F7D49B
:1008E0002078000722D5864F87486169703771B13B
:1008F00001210160FFF7DAFD064604E0FFF7D6FDAF
:10090000801B022809D838688007F7D50EE0C0F8A8
:1009100000A0FFF7CBFD064605E082E0FFF7C6FD2D
:10092000801B02287DD838688007F7D420784007DC
:1009300068D5DFF8CCB100270BF13C0BDBF80000E9
:10094000C0000BD4DBF8001041F08051CBF8001050
:10095000DBF80000012700F0805000906B4E3068FB
:10096000C00510D4306840F480703060FFF79EFD01
:10097000009005E0FFF79AFD0099401A022850D830
:100980003068C005F6D55E4EA0686C3601280FD0E1
:100990000528306810D020F001003060306820F069
:1009A00004003060A068B8B1FFF780FD00900FE050
:1009B000306840F00100F4E740F004003060F7E7F1
:1009C000FFF774FD0099411A41F28830814266D8E0
:1009D00030688007F4D50EE0FFF768FD009007E06F
:1009E000FFF764FD0099411A41F28830814256D8E0
:1009F00030688007F4D42FB1DBF8001021F080516B
:100A0000CBF80010A069C8B33D49091D0968C1F3BE
:100A1000810102294AD00228504607D0C8F8600058
:100A200000E03CE0FFF742FD04463BE04746C8F8E3
:100A30006000FFF73BFD064605E000BFFFF736FD0F
:100A4000801B02282BD828688001F7D4D4E907013D
:100A50000843A16A2E4A490802EB0141626A41EA51
:100A60008211084394F82C1040EA0161C9F8001083
:100A700001203866FFF71AFD044606E03EE000BF9D
:100A8000FFF714FD001B022809D828688001F7D55C
:100A900034E000BFFFF70AFD001B022802D9032043
:100AA000BDE8F88F28688001F4D427E00128F7D04A
:100AB000D9F80000E26900F4800191421CD1226A59
:100AC00000F03F01914217D147F6C071626A0140C0
:100AD000B1EB821F10D1A26A4FF0FF3300F4403116
:100AE00003EB5202B1EB024F06D194F82C1000F048
:100AF0007060B0EB016F01D00120D1E70020CFE79B
:100B00000438024000004742800E47420070004017
:100B10000000FFFF10B5401EB0F1807F01D301201F
:100B200010BD4FF0E02460610F21601700F0BBFEA4
:100B30000020A06107202061002010BD70B590F852
:100B40003C20012A32D0012480F83C40022280F867
:100B50003D2003685A689D6822F070060A68324397
:100B60005A60134B02689A4214D0B2F1804F11D0F0
:100B7000104B9A420ED0104B9A420BD00F4B9A4218
:100B800008D00F4B9A4205D00E4B9A4202D00E4B22
:100B90009A4204D1496825F080031943916080F896
:100BA0003D40002180F83C10084670BD022070BD19
:100BB000000001400004004000080040000C00401C
:100BC00000040140004001400018004010B504003E
:100BD00003D094F83D0010B107E0012010BD0020C3
:100BE00084F83C00204600F01FF8022084F83D0005
:100BF000211D206800F062FC012084F8460084F882
:100C00003E0084F83F0084F8400084F8410084F8F6
:100C1000420084F8430084F8440084F8450084F8D6
:100C20003D00002010BD000008B50068B0F1804F05
:100C300008D10548016841F001010160006800F039
:100C40000100009008BD00004038024070B5044625
:100C500090F83C000025012817D0012684F83C605C
:100C6000022084F83D002068826822F0770222F496
:100C70007F4282600868502838D00DDC20284FD091
:100C800005DC90B3102811D14AE0022070BD302855
:100C900046D040280AD13BE060282FD070280DD0E4
:100CA000B0F5805F03D0B0F5005F12D0012584F865
:100CB0003D60002084F83C00284670BDCB68D1E937
:100CC0000121206800F06FFC2068816841F0770105
:100CD00009E0CB68D1E90121206800F064FC2068BC
:100CE000816841F480418160E1E719E0CA684968A0
:100CF000206800F02DFD5021206806E0CA68496890
:100D0000206800F036FD6021206800F056FCCEE738
:100D1000CA684968206800F01BFD40212068F4E79C
:100D2000226801461046F0E72DE9F0410D46040027
:100D300003D094F83D0018B108E00120BDE8F0812F
:100D4000002084F83C00204600F040F8022084F89F
:100D50003D002068816844F2070291438160211DB3
:100D6000206800F0ABFB226890689169166A2B68D6
:100D7000AF69034340F20330814341EA0721A86889
:100D8000EF6908434FF6FC418843E96840EA0720D1
:100D9000014328692F6A000140EA07300843696867
:100DA0006D6926F0AA0646EA051529439360226874
:100DB000906154F8460B0162012004F81F09E075A8
:100DC0002076E0762077A0750020B7E710B586B0D2
:100DD000044614216846FFF72BFA1249206888421E
:100DE0001ED111480021026842F002020260006830
:100DF00000F0020005900C481038026842F004022E
:100E00000260006800F004000590C02000900220FD
:100E1000CDE90101CDE9031069460448FFF748FA1E
:100E200006B010BD000400404038024000080240F7
:100E300010B586B0044614216846FFF7F9F920681A
:100E4000B0F1804F15D10C480021026842F0010238
:100E50000260006800F0010005902220009002204E
:100E6000CDE9010103900120049069460348FFF792
:100E70001FFA06B010BD00003038024000000240EA
:100E800070B5044690F83C0000260D4601280FD0AE
:100E9000012084F83C006AB1042A1DD0082A2FD012
:100EA0000C2A3FD00126002084F83C00304670BD5B
:100EB000022070BD206800F089FB2068816941F044
:100EC000080181612068816921F004018161206845
:100ED00081692A69114311E0206800F0A7FB2068AE
:100EE000816941F4006181612068816921F4806138
:100EF0008161206881692A6941EA02218161D2E722
:100F0000206800F0C9FB2068C16941F00801C16197
:100F10002068C16921F00401C1612068C1692A69A2
:100F2000114311E0206800F0EBFB2068C16941F437
:100F30000061C1612068C16921F48061C1612068DC
:100F4000C1692A6941EA0221C161ACE710B5040018
:100F500003D094F83D0010B107E0012010BD00203F
:100F600084F83C00204600F01EF8022084F83D0082
:100F7000211D206800F0A2FA012084F8460084F8C0
:100F80003E0084F83F0084F8400084F8410084F873
:100F9000420084F8430084F8440084F8450084F853
:100FA0003D00002010BD704710B50446022249B133
:100FB00004290ED0082913D094F84100012816D036
:100FC000012010BD94F83E000128F9D184F83E209C
:100FD0000FE094F83F000128F2D184F83F2008E0A8
:100FE00094F840000128EBD184F8402001E084F817
:100FF00041200122206800F0C9FA16492068164AEB
:10100000884201D0904203D1436C43F400434364CF
:101010002068884213D0B0F1804F10D00F49884229
:101020000DD00F4988420AD00E49884207D090421D
:1010300005D00D49884202D00C49884204D181680C
:1010400001F00701062903D0016841F001010160A8
:10105000002010BD000001400004014000040040D9
:1010600000080040000C0040004001400018004013
:1010700070B5040004D094F84100002510B106E0DA
:10108000012070BD84F84050204600F023F8242051
:1010900084F841002068C16821F40051C1602046F5
:1010A00000F07AFB2068016921F490410161206819
:1010B000416921F02A0141612068C16841F4005171
:1010C000C1606564202084F8410084F842006563B3
:1010D000002070BD10B586B0044614216846FFF7A5
:1010E000A7F814492068884221D1134800210268DA
:1010F00042F010020260006800F0100005900E48F7
:101100001438026842F001020260006800F0010039
:1011100005904FF4C06000900220CDE9010103204A
:1011200003900720049069460448FFF7C1F806B011
:1011300010BD000000100140443802400000024091
:10114000FEE700002DE9F04186B014216846FFF764
:101150006FF81F480024016841F0800101600168B8
:1011600001F080010591016841F001010160016811
:1011700001F001010591016841F00401016000687E
:10118000144F00F0040005900022C8213846FFF7F4
:1011900087F9DFF84480002230214046FFF780F9CC
:1011A000C82001250226CDE90005CDE902466946A1
:1011B0003846FFF77DF83020CDE90005CDE902463D
:1011C00069464046FFF774F806B0BDE8F0810000BC
:1011D00030380240000002400008024010B58EB0D6
:1011E00000240794089409940A940B941C216846DF
:1011F0000C94FFF71DF821484FF080410160532106
:10120000C0E901146321C0E903148461FFF7DEFC27
:1012100008B1FFF74BF84FF48050079007A9174823
:10122000FFF714FD08B1FFF741F81448FFF78EFEF1
:1012300008B1FFF73BF80B940BA910480C94FFF78B
:101240007DFC08B1FFF732F86020CDE9000402947C
:101250000022694609480494FFF712FE08B1FFF71F
:1012600025F8042269460548FFF70AFE08B1FFF792
:101270001DF80248FFF7DCFD0EB010BD1000002085
:1012800010B58CB024216846FEF7D2FF0024164822
:10129000099414490A9401600121C0E901144FF630
:1012A000FF72C0E903248461CDE90014CDE9021482
:1012B0000F200222CDE90402CDE906140890694608
:1012C0000948FFF731FD08B1FEF7F0FF099409A9BD
:1012D00005480A94FFF732FC002801D0FEF7E6FF2C
:1012E0000CB010BD00040040580000200C4810B5A0
:1012F0000A4901604FF4E1314160002181600C2214
:10130000C160C0E904128161C161FFF7B1FE00282C
:1013100003D0BDE81040FEF7C9BF10BD001001406A
:10132000A0000020FEE7000010B5012208210848B7
:10133000FFF7B6F800210748FFF736FE04210548FD
:10134000FFF732FEBDE810400A2000F005B80000AB
:10135000000002401000002010B5041E05DD002032
:1013600000F018F8E1B2E0B20CE005D1022000F084
:1013700011F80021084605E0012000F00BF860425A
:10138000C1B2C0B2BDE8104000F09EBAFEE770479F
:101390007047000070B51D4D1D4CC8B1012823D009
:1013A000022832D1002240212846FFF779F8002296
:1013B00080212846FFF774F8002210212046FFF70D
:1013C0006FF800222046BDE870402021FFF768B882
:1013D000012240212846FFF763F800228021284699
:1013E000FFF75EF80122E8E7002240212846FFF7D8
:1013F00057F8012280212846FFF752F800221021D9
:101400002046FFF74DF80122DCE770BD00000240E6
:1014100000080240FFF750B830B593B0302168465D
:10142000FEF706FF14210CA8FEF702FF1D48002559
:10143000016841F080510160006800F08050119017
:101440001948016841F4804101600068022400F4F9
:101450008040119001200390102004900094069485
:101460000820CDE90750A820CDE9090404200B90FD
:101470006846FFF799F908B172B6FEE70CA90F208C
:1014800081E831004FF4A0500F904FF4805010903D
:1014900005210CA8FFF79CF8002801D072B6FEE7E2
:1014A00013B030BD4038024000700040024801686F
:1014B00041F470010160704788ED00E0F0B502680A
:1014C000274B284D284E294F294C4FF0804C9842ED
:1014D00009D0604507D0A84205D0B04203D0B84239
:1014E00001D0A04204D122F0700E4A6842EA0E02F6
:1014F00098421BD0604519D0A84217D0B04215D0F1
:10150000B84213D0A04211D01A4DA8420ED01A4DA5
:10151000A8420BD0194DA84208D0194DA84205D0B9
:10152000184DA84202D0184DA84203D122F44075AC
:10153000CA682A434D6922F080022A438D68C56239
:101540000D688562984201D0A04201D1096901630A
:10155000016841F004010160012141610260F0BDB8
:10156000000001400004004000080040000C004062
:101570000004014000400140004401400048014097
:1015800000180040001C00400020004010B501F091
:101590001F030121046A99408C430462016A9A4046
:1015A0001143016210BD10B5846842EA032224F49D
:1015B0007F440A432243826010BD826822F0700299
:1015C0000A4342F00701816070470000F0B5036AEA
:1015D000026A22F00102026242688469124E24F01B
:1015E00073050C682C4323F002058B682B430D4DCB
:1015F000A84201D0B04205D123F00807CB683B4395
:1016000023F00403A84201D0B04205D14D6922F471
:10161000407215438A692A43426084614968416384
:101620000362F0BD0000014000040140F0B5026A11
:10163000036A23F010030362436884690D6824F48D
:10164000E64444EA05248D6822F0200242EA0512AD
:101650000F4D104EA84201D0B04206D1CF6822F003
:10166000800242EA071222F04002A84201D0B042B2
:1016700007D14D6923F4406343EA85038D6943EA4A
:10168000850343608461496881630262F0BD0000A4
:101690000000014000040140F0B5026A036A23F42F
:1016A000807303624368C46922F4007224F07305F6
:1016B0000C68124E2C438D6842EA05220E4DA8425A
:1016C00001D0B04206D1CF6822F4006242EA07227C
:1016D00022F48062A84201D0B04207D14D6923F4C0
:1016E000405343EA05138D6943EA05134360C4611F
:1016F0004968C1630262F0BD00000140000401407E
:1017000030B5046A026A22F4805202624268C369F8
:101710000D6823F4E64343EA05238D6824F400545E
:1017200044EA0534084DA84202D0084DA84204D12D
:101730004D6922F4804242EA85124260C3614968E1
:101740000164046230BD000000000140000401405B
:1017500010B5036A046A24F001040462846924F069
:10176000F00444EA021423F00A020A43846102628C
:1017700010BD10B5036A046A24F010040462846981
:1017800023F0A00324F4704444EA023243EA011136
:101790008261016210BD000070B5044600680169F5
:1017A000E26821F44051114301612169A068E269B6
:1017B00008436169114308432168CA6849F20C6310
:1017C0009A430243CA6020684169A26921F44071CA
:1017D0001143416131492068884202D03049884232
:1017E00002D1FEF79FFF01E0FEF78CFFE2690023C4
:1017F000192164253226B2F5004F626828D0A0FB7B
:101800000101930F9200FEF7DBFC0146B0FBF5F0FF
:101810006FF01802504301EB800006EB0010B0FBA4
:10182000F5F000F0F002B1FBF5F002EB0012B1FBB5
:10183000F5F06FF01803584301EB800006EB001041
:10184000B0FBF5F000F00F0021681044886070BD17
:10185000A0FB010192185B41FEF7B2FC0146B0FB10
:10186000F5F00201B1FBF5F06FF01803584301EBFE
:10187000800006EBC000B0FBF5F000F0F80002EBD2
:101880004002B1FBF5F0584301EB800006EBC000CD
:10189000B0FBF5F000F00700D6E7000000100140B3
:1018A00000140140FEE70907090E002804DB00F1DF
:1018B000E02080F80014704700F00F0000F1E020F5
:1018C00080F8141D70470000024A136858631068BE
:1018D000816370471000002002E008C8121F08C191
:1018E000002AFAD170477047002001E001C1121FA1
:1018F000002AFBD17047FEF7E7FDFFF78DFDFFF7EC
:1019000021FCFFF76BFCFFF7F1FCFFF7B9FCFFF7D9
:101910000BFDFEE7000000000000000001020304D0
:101920000607080900000000010203044C19000822
:101930000000002010000000D81800085C19000802
:1019400010000020D8040000E81800080100000082
:0C19500010000000000000000024F40063
:040000050800018965
:00000001FF
